:04000000F4EF0AF01F
:100F00000001000A006400E8031027280C010625F0
:100F1000303175000000898089928994899680AA71
:100F200018D0010E5C6E780E3D6E000E3E6E0F0EF8
:100F30003F6E0F0E406E5CC041F0426ACEEC08F08E
:100F4000780E396E000E3A6E5DEC0BF000D080BA70
:100F5000FED780AE18D0020E5C6E780E3D6E000E8D
:100F60003E6E0F0E3F6E0F0E406E5CC041F0426A47
:100F7000CEEC08F0780E396E000E3A6E5DEC0BF098
:100F800000D080BEFED780AC18D0030E5C6E780E09
:100F90003D6E000E3E6E0F0E3F6E0F0E406E5CC03B
:100FA00041F0426ACEEC08F0780E396E000E3A6ECF
:100FB0005DEC0BF000D080BCFED782A405D00B0EF8
:100FC0005C6E00D082B4FED789908982899489961C
:100FD00080AA18D0040E5C6E780E3D6E000E3E6E38
:100FE0000F0E3F6E0F0E406E5CC041F0426ACEECB9
:100FF00008F0780E396E000E3A6E5DEC0BF000D002
:1010000080BAFED780AE18D0050E5C6E780E3D6EAD
:10101000000E3E6E0F0E3F6E0F0E406E5CC041F034
:10102000426ACEEC08F0780E396E000E3A6E5DEC36
:101030000BF000D080BEFED780AC18D0060E5C6EE0
:10104000780E3D6E000E3E6E0F0E3F6E0F0E406E20
:101050005CC041F0426ACEEC08F0780E396E000EAA
:101060003A6E5DEC0BF000D080BCFED782A405D0B8
:101070000C0E5C6E00D082B4FED789908992898470
:10108000899680AA18D0070E5C6E780E3D6E000E11
:101090003E6E0F0E3F6E0F0E406E5CC041F0426A16
:1010A000CEEC08F0780E396E000E3A6E5DEC0BF067
:1010B00000D080BAFED780AE18D0080E5C6E780ED5
:1010C0003D6E000E3E6E0F0E3F6E0F0E406E5CC00A
:1010D00041F0426ACEEC08F0780E396E000E3A6E9E
:1010E0005DEC0BF000D080BEFED780AC18D0090EAE
:1010F0005C6E780E3D6E000E3E6E0F0E3F6E0F0E54
:10110000406E5CC041F0426ACEEC08F0780E396E59
:10111000000E3A6E5DEC0BF000D080BCFED782A4CE
:1011200005D00D0E5C6E00D082B4FED789908992F6
:101130008994898680AA05D00E0E5C6E00D080BA94
:10114000FED780AE18D0000E5C6E780E3D6E000E9D
:101150003E6E0F0E3F6E0F0E406E5CC041F0426A55
:10116000CEEC08F0780E396E000E3A6E5DEC0BF0A6
:1011700000D080BEFED780AC05D00F0E5C6E00D0D4
:1011800080BCFED782A407D0100E5C6E00D082A473
:1011900002D0FDD700D05C5012001200410E476E05
:1011A000000E486E17D1250E4F18D8B409D03DC097
:1011B000D9FF3EC0DAFF4FC0DFFF3D4A3E2A0AD1C9
:1011C000000E4E6E000E4D6E000E496E05D0498425
:1011D0003F4A402A01D00BD03FC0F6FF40C0F7FF86
:1011E0000800F550300AD8B4F2D701D0F5D73FC087
:1011F000F6FF40C0F7FF0800F55082EC0BF0D8A0D6
:101200003AD0000E4E6E000E4D6E00D04DC031F043
:101210004EC032F0000E346E0A0E336E49EC0BF005
:1012200031C04DF032C04EF0D00E436EFF0E446E12
:101230003FC0F6FF40C0F7FF0800F550456E466A14
:10124000435045264450462245504D2646504E2296
:101250003F4A402A3FC0F6FF40C0F7FF0800F55064
:1012600082EC0BF0D8A007D0D1D705D0C1D0B2D036
:10127000C00E491211D03FC0F6FF40C0F7FF3F4AF1
:10128000402A0800F5CF4FF04F50000AD8B4B0D034
:10129000750AD8B4EDD79ED047C0D9FF48C0DAFF51
:1012A000DECF4AF0DDCF4BF0020E4726000E48227B
:1012B000010E4F6E050E4F18D8B416D001D014D0C1
:1012C0004F50020D010EF324F66E0F0EF420F76E50
:1012D0000900F5504A5C0900F5504B58D8A004D0DD
:1012E00001D002D04F2AE6D7800E4FBE7F0E436E4C
:1012F0004D504F5C4E50800A4358D8B007D04F50E5
:101300004D5E000E4FBEFF0E4E5A05D0000E4E6EC3
:10131000000E4D6E00D049A415D04D504E10D8B4DB
:1013200026D03DC0D9FF3EC0DAFF300EDF6E3D4A09
:101330003E2A4D06D8A04E064D504E10D8B417D0B8
:10134000F0D715D04D504E10D8B411D03DC0D9FFB4
:101350003EC0DAFF200EDF6E3D4A3E2A4D06D8A081
:101360004E064D504E10D8B402D0F0D700D04FC02A
:101370004CF02AD04C50020D010EF324F66E0F0EE5
:10138000F420F76E0900F5CF33F00A00F5CF34F002
:101390004AC031F04BC032F07AEC0AF031C038F07C
:1013A00032C039F0000E3B6E0A0E3A6EA8EC0AF01D
:1013B0003850300F4F6E3DC0D9FF3EC0DAFF4FC0EE
:1013C000DFFF3D4A3E2A00D04C064C28D8B402D05C
:1013D000D1D700D03FC0F6FF40C0F7FF3F4A402AB8
:1013E0000800F5CF4FF04F50D8B402D0DCD600D073
:1013F0003DC0D9FF3EC0DAFF000EDF6E12001200C2
:10140000336E000E376E000E366E3350316E326A18
:10141000D89031363236FF0E3124346EFF0E322032
:10142000356E000E376E000E366E07D08A84FA0EC7
:1014300000F0E82EFDD7364A372A3450365C375054
:10144000800A316E3550800A3158D8A0EFD734C0A9
:1014500036F035C037F037BE08D037500FE1200ED8
:10146000365CD8B0120001D012008A94FA0E00F057
:10147000E82EFDD7364A372AEED712001200326E18
:1014800032A003D0316A312A01D0316A313A8A5010
:101490003118EF0B31188A6E32A203D0316A312A2B
:1014A00001D0316A313A31468A503118DF0B311898
:1014B0008A6E32A403D0316A312A01D0316A313ABE
:1014C000314631468A503118BF0B31188A6E32A628
:1014D00003D0316A312A01D0316A313231328A5037
:1014E00031187F0B31188A6E00F08A8400F000F00A
:1014F0008A941200000E366E000E356E3350341092
:10150000D8B421D0010E376E05D0D890333634369A
:10151000372A00D034BE02D0F8D700D0D890353664
:1015200036363350315C34503258D8A006D0335060
:10153000315E3450325A358000D0D8903432333254
:10154000372EECD700D035C031F036C032F0120063
:101550003A503B10D8B41DD0010E3C6E05D0D89047
:101560003A363B363C2A00D03BBE02D0F8D700D0FA
:101570003A50385C3B503958D8A005D03A50385EC4
:101580003B50395A00D0D8903B323A323C2EF0D7FB
:1015900000D038C038F039C039F01200386E18D099
:1015A000010E336E000E30EC0BF01200020E356EA1
:1015B000010E70EC0BF01200100E336E000E30ECCA
:1015C0000BF0120038C033F0010E30EC0BF01200BB
:1015D0003850080AD8B4F0D7020AD8B4E7D7060AB8
:1015E000D8B4DED7EFD7120000EE60F02C0EEE6A12
:1015F000E806FDE15E6A00EE01F0300EEE6AE806F4
:10160000FDE14C0EF66E170EF76E000EF86E00EE52
:1016100050F010EE0EF00900F5CFEEFFE550E1506E
:10162000FAE1000EF86E000193EF0BF09B8E9B9C8D
:10163000D388D38AD38CD390D392F00E926E000EBF
:10164000936E070E946E0F0148690F0149690F01EF
:101650003F8F0F013F8BCD868A948A928A90120029
:10166000346E8A96020E9DEC0BF09398939A939C9D
:10167000939E3450D8B402D08A8601D08A9600F066
:1016800033380F0B3FEC0AF033500F0B3FEC0AF0EE
:10169000120031503302F3CF35F0F4CF36F0315031
:1016A0003402F350362632503302F350362635C01A
:1016B00031F036C032F0120012000AD039C0D9FF22
:1016C0003AC0DAFFDF50CEEC0AF0394A3A2A00D0AD
:1016D00039C0D9FF3AC0DAFFDF50D8A4EFD71200E3
:1016E000366E3504D8B402D0400E01D0000E376EED
:1016F00000D03604372637508009336E000E30ECA8
:101700000BF01200336E000E326E3A0E336006D0CC
:101710002F0E336403D0010E326E00D032C031F090
:1017200031301200120016EC0BF000D08BEC07F0F9
:1017300000EC0AF0FBD700EF00F0316E210EE82E2E
:10174000FED700F0312EFAD7120012000F00080069
:0A1750000300120009001E00120140
:08FFF800AEF718FFF3F8FFF16A
:00000001FF
