:0400000015EF0AF0FE
:100F000000280C0106008A828A948A968A9881AA0F
:100F100007D0000E586E010E576E00D081BAFED772
:100F200081AE07D0000E586E020E576E00D081BE03
:100F3000FED781AC07D0000E586E030E576E00D05E
:100F400081BCFED78A928A848A968A9881AA07D021
:100F5000000E586E040E576E00D081BAFED781AED7
:100F600007D0000E586E050E576E00D081BEFED71A
:100F700081AC07D0000E586E060E576E00D081BCB3
:100F8000FED78A928A948A868A9881AA07D0000E10
:100F9000586E070E576E00D081BAFED781AE07D0CB
:100FA000000E586E080E576E00D081BEFED781AC81
:100FB00007D0000E586E090E576E00D081BCFED7C8
:100FC0008A928A948A968A8881AA07D0000E586EDF
:100FD0000E0E576E00D081BAFED781AE07D0000E3C
:100FE000586E000E576E00D081BEFED781AC09D07E
:100FF000000E586E0F0E576E00D081AC02D0FDD798
:1010000000D0030E036E980EE82EFED7032EFCD7F9
:1010100057C001F058C002F0120012001EC020F0AC
:10102000216A226A1D34203601E3218020502A6E75
:101030002A50D8A409D0000E1C6E000E1D6E000EA2
:101040001E6E000E1F6E1200170E206E1CC021F0C7
:101050001DC022F01EC023F02028246E04D0D8909A
:10106000233222322132242EFAD72150256E1D8EB2
:10107000FF0E1C16FF0E1D16000E1E161C50266EAF
:101080001D50276E1E50286E296A8E0E2A5E2AAECB
:1010900017D02A50800A8F0FD8B00AD0000E1C6ECD
:1010A000000E1D6E000E1E6E000E1F6E120000D090
:1010B000D89029322832273226322A3EF9D719D041
:1010C000170E2A6411D0000E1C6E000E1D6E000E4D
:1010D0001E6E000E1F6E120007D0D89026362736DF
:1010E000283629362A0600D02A50D8B402D0F5D79F
:1010F00000D02550D8B409D0291E281E271E266CE2
:10110000000E27222822292200D026C01CF027C04A
:101110001DF028C01EF029C01FF0120012000FC0E1
:1011200013F0146A156A0E34133601E31480135059
:101130001A6E1A50D8A407D0000E0D6E000E0E6E57
:10114000000E0F6E120012C013F0146A156A1134EB
:10115000133601E3148013501B6E1B50D8A407D024
:10116000000E0D6E000E0E6E000E0F6E1200000EC1
:10117000176E000E186E000E196E1B50890F1A5E46
:101180000FC01BF012501B1A800E1B160E8EFF0E86
:101190000D16FF0E0E16000E0F16118EFF0E1016F6
:1011A000FF0E1116000E1216180E166E00D0D890F3
:1011B00017361836193610500D5C11500E58125053
:1011C0000F58D8A007D010500D5E11500E5A125073
:1011D0000F5A1780D8900D360E360F36162EE7D7D9
:1011E00000D017C001F018C002F019C003F01AC0F7
:1011F00004F01BC005F005EC09F001C00DF002C0C1
:101200000EF003C00FF0120012000450D8B405D045
:10121000015002100310D8A40ED0000E016E000E73
:10122000026E000E036E120006D0042AD89003321C
:101230000232013200D0000E0114066E000E0214BC
:10124000076EFE0E0314086E065007100810D8B47F
:101250000ED0EBD70CD0042A010E0126000E02227C
:10126000000E0322D89003320232013200D0000E69
:101270000114066E000E0214076EFF0E0314086EB2
:10128000065007100810D8B408D0E5D706D00406D9
:10129000D89001360236033600D002BE04D0020ECA
:1012A0000460F5D700D004B002D0029E00D0D890E0
:1012B0000432045003120550D8B402D0038E00D07B
:1012C00001C001F002C002F003C003F012001200DE
:1012D000010E0924016E000E0A20026E000E046E3B
:1012E0000A0E036E6CEC0AF001C009F002C00AF0AD
:1012F000000E0D6E000E0C6E0DD007C001F008C080
:1013000002F0E2EC09F0FA0E00F0E82EFDD70C4AEC
:101310000D2A00D009500C5C0D50800A0B6E0A504B
:10132000800A0B58D8A0E9D709C00CF00AC00DF00C
:101330000DBE08D00D5010E1200E0C5CD8B012008C
:1013400001D0120095EC0AF0FA0E00F0E82EFDD75D
:101350000C4A0D2AEDD712001200306E000E2B6ED3
:10136000600E2C6E400E2D6E30C031F0326A2BC0F4
:1013700010F02CC011F02DC012F031C009F032C0B5
:101380000AF037EC0AF009C00DF00AC00EF00BC0ED
:101390000FF08FEC08F00DC01CF00EC01DF00FC058
:1013A0001EF00EEC08F01CC02EF01DC02FF031C056
:1013B00007F032C008F02EC009F02FC00AF068EC28
:1013C00009F0120001040210D8B40AD0040E01186A
:1013D0000210D8B405D0070E01180210D8A402D00C
:1013E000899600D0020E01180210D8B40AD0050E5A
:1013F00001180210D8B405D0080E01180210D8A4A4
:1014000002D0899A00D0030E01180210D8B40AD075
:10141000060E01180210D8B405D0090E01180210EA
:10142000D8A41200899E1200120000EE60F0400E57
:10143000EE6AE806FDE15E6A00EE33F01C0EEE6A2D
:10144000E806FDE11A0EF66E150EF76E000EF86E48
:1014500000EE4FF010EE0FF00900F5CFEEFFE55073
:10146000E150FAE1000EF86E000180EF0AF0000E84
:101470000C6E0AAE07D0096C0A1ED8B00A2A010EFB
:101480000C6E00D009C001F00AC002F0036A8E0E93
:10149000046E0CC005F005EC09F001C009F002C0B3
:1014A0000AF003C00BF0120012009B8E9B9CD388A5
:1014B000D38AD38CD390D392570E926EE00E936E54
:1014C000000E946E0F0148690F0149690F013F8FAB
:1014D0000F013F8BCD86120001500302F3CF05F0C0
:1014E000F4CF06F001500402F35006260250030226
:1014F000F350062605C001F006C002F012001200EB
:1015000055EC0AF095EC0AF000D083EC07F001509E
:10151000ADEC09F0FAD700EF00F00F00080003006F
:101520001200120009001E000100898E898A898636
:021530001200A7
:08FFF800AEF718FFF3F8FFF16A
:00000001FF
